{
  "contractName": "MusicMarketplace",
  "abi": [
    {
      "inputs": [
        {
          "internalType": "address",
          "name": "",
          "type": "address"
        }
      ],
      "name": "artistIDsByWallet",
      "outputs": [
        {
          "internalType": "uint256",
          "name": "",
          "type": "uint256"
        }
      ],
      "stateMutability": "view",
      "type": "function",
      "constant": true
    },
    {
      "inputs": [
        {
          "internalType": "uint256",
          "name": "",
          "type": "uint256"
        }
      ],
      "name": "artists",
      "outputs": [
        {
          "internalType": "uint256",
          "name": "artistID",
          "type": "uint256"
        },
        {
          "internalType": "address",
          "name": "walletAddress",
          "type": "address"
        },
        {
          "internalType": "string",
          "name": "artistName",
          "type": "string"
        },
        {
          "internalType": "enum MusicMarketplace.UserType",
          "name": "userType",
          "type": "uint8"
        },
        {
          "internalType": "uint256",
          "name": "totalEarnings",
          "type": "uint256"
        }
      ],
      "stateMutability": "view",
      "type": "function",
      "constant": true
    },
    {
      "inputs": [
        {
          "internalType": "uint256",
          "name": "",
          "type": "uint256"
        }
      ],
      "name": "commercials",
      "outputs": [
        {
          "internalType": "uint256",
          "name": "commercialID",
          "type": "uint256"
        },
        {
          "internalType": "address",
          "name": "walletAddress",
          "type": "address"
        },
        {
          "internalType": "string",
          "name": "commercialName",
          "type": "string"
        }
      ],
      "stateMutability": "view",
      "type": "function",
      "constant": true
    },
    {
      "inputs": [],
      "name": "nextArtistID",
      "outputs": [
        {
          "internalType": "uint256",
          "name": "",
          "type": "uint256"
        }
      ],
      "stateMutability": "view",
      "type": "function",
      "constant": true
    },
    {
      "inputs": [],
      "name": "nextCommercialID",
      "outputs": [
        {
          "internalType": "uint256",
          "name": "",
          "type": "uint256"
        }
      ],
      "stateMutability": "view",
      "type": "function",
      "constant": true
    },
    {
      "inputs": [],
      "name": "nextPersonalID",
      "outputs": [
        {
          "internalType": "uint256",
          "name": "",
          "type": "uint256"
        }
      ],
      "stateMutability": "view",
      "type": "function",
      "constant": true
    },
    {
      "inputs": [],
      "name": "nextPublisherID",
      "outputs": [
        {
          "internalType": "uint256",
          "name": "",
          "type": "uint256"
        }
      ],
      "stateMutability": "view",
      "type": "function",
      "constant": true
    },
    {
      "inputs": [],
      "name": "nextSongID",
      "outputs": [
        {
          "internalType": "uint256",
          "name": "",
          "type": "uint256"
        }
      ],
      "stateMutability": "view",
      "type": "function",
      "constant": true
    },
    {
      "inputs": [
        {
          "internalType": "uint256",
          "name": "",
          "type": "uint256"
        }
      ],
      "name": "personals",
      "outputs": [
        {
          "internalType": "uint256",
          "name": "personalID",
          "type": "uint256"
        },
        {
          "internalType": "address",
          "name": "walletAddress",
          "type": "address"
        },
        {
          "internalType": "string",
          "name": "personalName",
          "type": "string"
        }
      ],
      "stateMutability": "view",
      "type": "function",
      "constant": true
    },
    {
      "inputs": [
        {
          "internalType": "address",
          "name": "",
          "type": "address"
        }
      ],
      "name": "publisherIDsByWallet",
      "outputs": [
        {
          "internalType": "uint256",
          "name": "",
          "type": "uint256"
        }
      ],
      "stateMutability": "view",
      "type": "function",
      "constant": true
    },
    {
      "inputs": [
        {
          "internalType": "uint256",
          "name": "",
          "type": "uint256"
        }
      ],
      "name": "publishers",
      "outputs": [
        {
          "internalType": "uint256",
          "name": "publisherID",
          "type": "uint256"
        },
        {
          "internalType": "address",
          "name": "walletAddress",
          "type": "address"
        },
        {
          "internalType": "string",
          "name": "publisherName",
          "type": "string"
        },
        {
          "internalType": "uint256",
          "name": "totalEarnings",
          "type": "uint256"
        }
      ],
      "stateMutability": "view",
      "type": "function",
      "constant": true
    },
    {
      "inputs": [],
      "name": "songIDTracker",
      "outputs": [
        {
          "internalType": "uint256",
          "name": "",
          "type": "uint256"
        }
      ],
      "stateMutability": "view",
      "type": "function",
      "constant": true
    },
    {
      "inputs": [
        {
          "internalType": "uint256",
          "name": "",
          "type": "uint256"
        }
      ],
      "name": "songs",
      "outputs": [
        {
          "internalType": "uint256",
          "name": "songID",
          "type": "uint256"
        },
        {
          "internalType": "uint256",
          "name": "publisherID",
          "type": "uint256"
        },
        {
          "internalType": "string",
          "name": "songName",
          "type": "string"
        },
        {
          "internalType": "uint256",
          "name": "personalPricing",
          "type": "uint256"
        },
        {
          "internalType": "uint256",
          "name": "commercialPricing",
          "type": "uint256"
        },
        {
          "internalType": "uint256",
          "name": "royaltyPercent",
          "type": "uint256"
        },
        {
          "internalType": "string",
          "name": "songHash",
          "type": "string"
        },
        {
          "internalType": "string",
          "name": "genre",
          "type": "string"
        }
      ],
      "stateMutability": "view",
      "type": "function",
      "constant": true
    },
    {
      "inputs": [
        {
          "internalType": "uint256",
          "name": "",
          "type": "uint256"
        }
      ],
      "name": "timesSongPurchased",
      "outputs": [
        {
          "internalType": "uint256",
          "name": "personalCount",
          "type": "uint256"
        },
        {
          "internalType": "uint256",
          "name": "commercialCount",
          "type": "uint256"
        }
      ],
      "stateMutability": "view",
      "type": "function",
      "constant": true
    },
    {
      "inputs": [
        {
          "internalType": "address",
          "name": "",
          "type": "address"
        }
      ],
      "name": "userTypes",
      "outputs": [
        {
          "internalType": "enum MusicMarketplace.UserType",
          "name": "",
          "type": "uint8"
        }
      ],
      "stateMutability": "view",
      "type": "function",
      "constant": true
    },
    {
      "inputs": [
        {
          "internalType": "string",
          "name": "_personalName",
          "type": "string"
        }
      ],
      "name": "addPersonal",
      "outputs": [],
      "stateMutability": "nonpayable",
      "type": "function"
    },
    {
      "inputs": [
        {
          "internalType": "string",
          "name": "_commercialName",
          "type": "string"
        }
      ],
      "name": "addCommercial",
      "outputs": [],
      "stateMutability": "nonpayable",
      "type": "function"
    },
    {
      "inputs": [
        {
          "internalType": "string",
          "name": "_publisherName",
          "type": "string"
        }
      ],
      "name": "addPublisher",
      "outputs": [],
      "stateMutability": "nonpayable",
      "type": "function"
    },
    {
      "inputs": [
        {
          "internalType": "string",
          "name": "_artistName",
          "type": "string"
        }
      ],
      "name": "addArtist",
      "outputs": [],
      "stateMutability": "nonpayable",
      "type": "function"
    },
    {
      "inputs": [
        {
          "internalType": "string",
          "name": "_songName",
          "type": "string"
        },
        {
          "internalType": "uint256",
          "name": "_personalPricing",
          "type": "uint256"
        },
        {
          "internalType": "uint256",
          "name": "_commercialPricing",
          "type": "uint256"
        },
        {
          "internalType": "uint256[]",
          "name": "_artistIDs",
          "type": "uint256[]"
        },
        {
          "internalType": "uint256",
          "name": "_royaltyPercent",
          "type": "uint256"
        },
        {
          "internalType": "string",
          "name": "_songHash",
          "type": "string"
        },
        {
          "internalType": "string",
          "name": "_genre",
          "type": "string"
        }
      ],
      "name": "addSong",
      "outputs": [],
      "stateMutability": "nonpayable",
      "type": "function"
    },
    {
      "inputs": [],
      "name": "checkUserType",
      "outputs": [
        {
          "internalType": "enum MusicMarketplace.UserType",
          "name": "",
          "type": "uint8"
        }
      ],
      "stateMutability": "view",
      "type": "function",
      "constant": true
    },
    {
      "inputs": [
        {
          "internalType": "uint256",
          "name": "_publisherID",
          "type": "uint256"
        }
      ],
      "name": "getPublisherEarnings",
      "outputs": [
        {
          "internalType": "uint256",
          "name": "",
          "type": "uint256"
        }
      ],
      "stateMutability": "view",
      "type": "function",
      "constant": true
    },
    {
      "inputs": [
        {
          "internalType": "uint256",
          "name": "_artistID",
          "type": "uint256"
        }
      ],
      "name": "getArtistEarnings",
      "outputs": [
        {
          "internalType": "uint256",
          "name": "",
          "type": "uint256"
        }
      ],
      "stateMutability": "view",
      "type": "function",
      "constant": true
    },
    {
      "inputs": [
        {
          "internalType": "uint256",
          "name": "_songID",
          "type": "uint256"
        }
      ],
      "name": "buySong",
      "outputs": [],
      "stateMutability": "payable",
      "type": "function",
      "payable": true
    },
    {
      "inputs": [],
      "name": "getPersonalDetails",
      "outputs": [
        {
          "internalType": "uint256",
          "name": "personalID",
          "type": "uint256"
        },
        {
          "internalType": "address",
          "name": "walletAddress",
          "type": "address"
        },
        {
          "internalType": "string",
          "name": "personalName",
          "type": "string"
        },
        {
          "internalType": "uint256[]",
          "name": "songIDs",
          "type": "uint256[]"
        }
      ],
      "stateMutability": "view",
      "type": "function",
      "constant": true
    },
    {
      "inputs": [],
      "name": "getCommercialDetails",
      "outputs": [
        {
          "internalType": "uint256",
          "name": "commercialID",
          "type": "uint256"
        },
        {
          "internalType": "address",
          "name": "walletAddress",
          "type": "address"
        },
        {
          "internalType": "string",
          "name": "commercialName",
          "type": "string"
        },
        {
          "internalType": "uint256[]",
          "name": "songIDs",
          "type": "uint256[]"
        }
      ],
      "stateMutability": "view",
      "type": "function",
      "constant": true
    },
    {
      "inputs": [
        {
          "internalType": "uint256",
          "name": "_songID",
          "type": "uint256"
        }
      ],
      "name": "getSongDetails",
      "outputs": [
        {
          "internalType": "uint256",
          "name": "songID",
          "type": "uint256"
        },
        {
          "internalType": "uint256",
          "name": "publisherID",
          "type": "uint256"
        },
        {
          "internalType": "string",
          "name": "songName",
          "type": "string"
        },
        {
          "internalType": "uint256",
          "name": "personalPricing",
          "type": "uint256"
        },
        {
          "internalType": "uint256",
          "name": "commercialPricing",
          "type": "uint256"
        },
        {
          "internalType": "uint256",
          "name": "royaltyPercent",
          "type": "uint256"
        },
        {
          "internalType": "string",
          "name": "songHash",
          "type": "string"
        },
        {
          "internalType": "string",
          "name": "genre",
          "type": "string"
        },
        {
          "internalType": "uint256[]",
          "name": "artistIDs",
          "type": "uint256[]"
        }
      ],
      "stateMutability": "view",
      "type": "function",
      "constant": true
    },
    {
      "inputs": [
        {
          "internalType": "uint256",
          "name": "_songID",
          "type": "uint256"
        }
      ],
      "name": "getSongPurchaseCounts",
      "outputs": [
        {
          "internalType": "uint256[]",
          "name": "",
          "type": "uint256[]"
        }
      ],
      "stateMutability": "view",
      "type": "function",
      "constant": true
    },
    {
      "inputs": [],
      "name": "getPublisherDetails",
      "outputs": [
        {
          "internalType": "uint256",
          "name": "publisherID",
          "type": "uint256"
        },
        {
          "internalType": "address",
          "name": "walletAddress",
          "type": "address"
        },
        {
          "internalType": "string",
          "name": "publisherName",
          "type": "string"
        },
        {
          "internalType": "uint256[]",
          "name": "songsPublished",
          "type": "uint256[]"
        }
      ],
      "stateMutability": "view",
      "type": "function",
      "constant": true
    },
    {
      "inputs": [],
      "name": "getArtistDetails",
      "outputs": [
        {
          "internalType": "uint256",
          "name": "artistID",
          "type": "uint256"
        },
        {
          "internalType": "address",
          "name": "walletAddress",
          "type": "address"
        },
        {
          "internalType": "string",
          "name": "artistName",
          "type": "string"
        },
        {
          "internalType": "uint256[]",
          "name": "songsArtist",
          "type": "uint256[]"
        }
      ],
      "stateMutability": "view",
      "type": "function",
      "constant": true
    },
    {
      "inputs": [],
      "name": "getNumSongs",
      "outputs": [
        {
          "internalType": "uint256",
          "name": "",
          "type": "uint256"
        }
      ],
      "stateMutability": "view",
      "type": "function",
      "constant": true
    },
    {
      "inputs": [
        {
          "internalType": "uint256",
          "name": "_publisherID",
          "type": "uint256"
        }
      ],
      "name": "getPublisherNameByID",
      "outputs": [
        {
          "internalType": "string",
          "name": "publisherName",
          "type": "string"
        }
      ],
      "stateMutability": "view",
      "type": "function",
      "constant": true
    },
    {
      "inputs": [
        {
          "internalType": "uint256",
          "name": "_artistID",
          "type": "uint256"
        }
      ],
      "name": "getArtistNameByID",
      "outputs": [
        {
          "internalType": "string",
          "name": "artistName",
          "type": "string"
        }
      ],
      "stateMutability": "view",
      "type": "function",
      "constant": true
    },
    {
      "inputs": [],
      "name": "getAllArtists",
      "outputs": [
        {
          "internalType": "uint256[]",
          "name": "",
          "type": "uint256[]"
        },
        {
          "internalType": "string[]",
          "name": "",
          "type": "string[]"
        }
      ],
      "stateMutability": "view",
      "type": "function",
      "constant": true
    }
  ],
  "bytecode": "0x60806040526001600055600180556001600255600160035560016004556000600e5534801561002d57600080fd5b506149368061003d6000396000f3fe6080604052600436106101f95760003560e01c806383d51dc81161010d578063b489d661116100a0578063cd7e10c11161006f578063cd7e10c1146107a9578063ce5f5764146107ea578063f803ace314610827578063ff060fbd14610853578063ffad8a7c14610893576101f9565b8063b489d661146106d7578063c302ee2114610716578063c981c1c514610755578063c9da002e1461077e576101f9565b80638b890de3116100dc5780638b890de3146106075780638fe8464c1461063257806398c042f81461065d5780639ad6d3361461069a576101f9565b806383d51dc81461053657806385d018ea1461055f57806387cd273c1461058d5780638b71d90a146105ca576101f9565b80633bb8e6b811610190578063606a01751161015f578063606a01751461045557806374f669601461047157806377822fc21461049a57806377ea4838146104df5780637f7a451014610508576101f9565b80633bb8e6b8146103a65780634231870f146103d157806344706c6a146103fc57806357f191e61461042a576101f9565b80632aac5b0e116101cc5780632aac5b0e146102ab5780632ffafb9e146102e8578063301f01a714610325578063304cff3014610362576101f9565b806304b29b61146101fe57806308e58b7d146102275780630c58d5b1146102555780630e6cb08014610280575b600080fd5b34801561020a57600080fd5b506102256004803603810190610220919061365d565b6108d1565b005b34801561023357600080fd5b5061023c610c3b565b60405161024c9493929190613905565b60405180910390f35b34801561026157600080fd5b5061026a610e34565b6040516102779190613958565b60405180910390f35b34801561028c57600080fd5b50610295610e4a565b6040516102a29190613958565b60405180910390f35b3480156102b757600080fd5b506102d260048036038101906102cd9190613973565b610e50565b6040516102df91906139a0565b60405180910390f35b3480156102f457600080fd5b5061030f600480360381019061030a9190613973565b610f58565b60405161031c91906139a0565b60405180910390f35b34801561033157600080fd5b5061034c60048036038101906103479190613973565b611060565b6040516103599190613958565b60405180910390f35b34801561036e57600080fd5b5061038960048036038101906103849190613973565b611080565b60405161039d9897969594939291906139c2565b60405180910390f35b3480156103b257600080fd5b506103bb611260565b6040516103c89190613958565b60405180910390f35b3480156103dd57600080fd5b506103e6611266565b6040516103f39190613958565b60405180910390f35b34801561040857600080fd5b5061041161126c565b6040516104219493929190613905565b60405180910390f35b34801561043657600080fd5b5061043f6113ed565b60405161044c9190613acc565b60405180910390f35b61046f600480360381019061046a9190613973565b611441565b005b34801561047d57600080fd5b5061049860048036038101906104939190613ae7565b611c43565b005b3480156104a657600080fd5b506104c160048036038101906104bc9190613973565b611d8d565b6040516104d699989796959493929190613b30565b60405180910390f35b3480156104eb57600080fd5b5061050660048036038101906105019190613ae7565b612036565b005b34801561051457600080fd5b5061051d61217e565b60405161052d9493929190613905565b60405180910390f35b34801561054257600080fd5b5061055d60048036038101906105589190613ae7565b6123b2565b005b34801561056b57600080fd5b50610574612551565b6040516105849493929190613905565b60405180910390f35b34801561059957600080fd5b506105b460048036038101906105af9190613c05565b612749565b6040516105c19190613acc565b60405180910390f35b3480156105d657600080fd5b506105f160048036038101906105ec9190613973565b612769565b6040516105fe9190613958565b60405180910390f35b34801561061357600080fd5b5061061c612789565b6040516106299190613958565b60405180910390f35b34801561063e57600080fd5b5061064761278f565b6040516106549190613958565b60405180910390f35b34801561066957600080fd5b50610684600480360381019061067f9190613973565b612795565b6040516106919190613c32565b60405180910390f35b3480156106a657600080fd5b506106c160048036038101906106bc9190613c05565b6128b3565b6040516106ce9190613958565b60405180910390f35b3480156106e357600080fd5b506106fe60048036038101906106f99190613973565b6128cb565b60405161070d93929190613c54565b60405180910390f35b34801561072257600080fd5b5061073d60048036038101906107389190613973565b61299d565b60405161074c93929190613c54565b60405180910390f35b34801561076157600080fd5b5061077c60048036038101906107779190613ae7565b612a6f565b005b34801561078a57600080fd5b50610793612c59565b6040516107a09190613958565b60405180910390f35b3480156107b557600080fd5b506107d060048036038101906107cb9190613973565b612c5f565b6040516107e1959493929190613c92565b60405180910390f35b3480156107f657600080fd5b50610811600480360381019061080c9190613c05565b612d4a565b60405161081e9190613958565b60405180910390f35b34801561083357600080fd5b5061083c612d62565b60405161084a929190613df8565b60405180910390f35b34801561085f57600080fd5b5061087a60048036038101906108759190613973565b612f46565b60405161088a9493929190613e2f565b60405180910390f35b34801561089f57600080fd5b506108ba60048036038101906108b59190613973565b61301e565b6040516108c8929190613e7b565b60405180910390f35b600260048111156108e5576108e4613a55565b5b600a60003373ffffffffffffffffffffffffffffffffffffffff1673ffffffffffffffffffffffffffffffffffffffff16815260200190815260200160002060009054906101000a900460ff16600481111561094457610943613a55565b5b14610984576040517f08c379a000000000000000000000000000000000000000000000000000000000815260040161097b90613ef0565b60405180910390fd5b6000600b60003373ffffffffffffffffffffffffffffffffffffffff1673ffffffffffffffffffffffffffffffffffffffff16815260200190815260200160002054905060008111610a0b576040517f08c379a0000000000000000000000000000000000000000000000000000000008152600401610a0290613f5c565b60405180910390fd5b600060046000815480929190610a2090613fab565b9190505590506040518061012001604052808281526020018381526020018a8152602001898152602001888152602001868152602001858152602001848152602001878152506009600083815260200190815260200160002060008201518160000155602082015181600101556040820151816002019080519060200190610aa9929190613315565b50606082015181600301556080820151816004015560a0820151816005015560c0820151816006019080519060200190610ae4929190613315565b5060e0820151816007019080519060200190610b01929190613315565b50610100820151816008019080519060200190610b1f92919061339b565b509050506007600083815260200190815260200160002060040181908060018154018082558091505060019003906000526020600020016000909190919091505560005b8651811015610bd65760086000888381518110610b8357610b82613ff4565b5b602002602001015181526020019081526020016000206005018290806001815401808255809150506001900390600052602060002001600090919091909150558080610bce90613fab565b915050610b63565b506040518060400160405280600081526020016000815250600d60008381526020019081526020016000206000820151816000015560208201518160010155905050600e6000815480929190610c2b90613fab565b9190505550505050505050505050565b60008060608060016004811115610c5557610c54613a55565b5b600a60003373ffffffffffffffffffffffffffffffffffffffff1673ffffffffffffffffffffffffffffffffffffffff16815260200190815260200160002060009054906101000a900460ff166004811115610cb457610cb3613a55565b5b14610cf4576040517f08c379a0000000000000000000000000000000000000000000000000000000008152600401610ceb90614095565b60405180910390fd5b6000610cff33613042565b90506000600560008381526020019081526020016000209050818160010160009054906101000a900473ffffffffffffffffffffffffffffffffffffffff168260020183600301818054610d52906140e4565b80601f0160208091040260200160405190810160405280929190818152602001828054610d7e906140e4565b8015610dcb5780601f10610da057610100808354040283529160200191610dcb565b820191906000526020600020905b815481529060010190602001808311610dae57829003601f168201915b5050505050915080805480602002602001604051908101604052809291908181526020018280548015610e1d57602002820191906000526020600020905b815481526020019060010190808311610e09575b505050505090509550955095509550505090919293565b60006001600e54610e459190614116565b905090565b60045481565b6060600060076000848152602001908152602001600020600001541415610eac576040517f08c379a0000000000000000000000000000000000000000000000000000000008152600401610ea390614196565b60405180910390fd5b6000600760008481526020019081526020016000209050806002018054610ed2906140e4565b80601f0160208091040260200160405190810160405280929190818152602001828054610efe906140e4565b8015610f4b5780601f10610f2057610100808354040283529160200191610f4b565b820191906000526020600020905b815481529060010190602001808311610f2e57829003601f168201915b5050505050915050919050565b6060600060086000848152602001908152602001600020600001541415610fb4576040517f08c379a0000000000000000000000000000000000000000000000000000000008152600401610fab90614202565b60405180910390fd5b6000600860008481526020019081526020016000209050806002018054610fda906140e4565b80601f0160208091040260200160405190810160405280929190818152602001828054611006906140e4565b80156110535780601f1061102857610100808354040283529160200191611053565b820191906000526020600020905b81548152906001019060200180831161103657829003601f168201915b5050505050915050919050565b600060076000838152602001908152602001600020600301549050919050565b60096020528060005260406000206000915090508060000154908060010154908060020180546110af906140e4565b80601f01602080910402602001604051908101604052809291908181526020018280546110db906140e4565b80156111285780601f106110fd57610100808354040283529160200191611128565b820191906000526020600020905b81548152906001019060200180831161110b57829003601f168201915b50505050509080600301549080600401549080600501549080600601805461114f906140e4565b80601f016020809104026020016040519081016040528092919081815260200182805461117b906140e4565b80156111c85780601f1061119d576101008083540402835291602001916111c8565b820191906000526020600020905b8154815290600101906020018083116111ab57829003601f168201915b5050505050908060070180546111dd906140e4565b80601f0160208091040260200160405190810160405280929190818152602001828054611209906140e4565b80156112565780601f1061122b57610100808354040283529160200191611256565b820191906000526020600020905b81548152906001019060200180831161123957829003601f168201915b5050505050905088565b60025481565b60005481565b6000806060806000600b60003373ffffffffffffffffffffffffffffffffffffffff1673ffffffffffffffffffffffffffffffffffffffff168152602001908152602001600020549050600060076000838152602001908152602001600020905080600001548160010160009054906101000a900473ffffffffffffffffffffffffffffffffffffffff16826002018360040181805461130b906140e4565b80601f0160208091040260200160405190810160405280929190818152602001828054611337906140e4565b80156113845780601f1061135957610100808354040283529160200191611384565b820191906000526020600020905b81548152906001019060200180831161136757829003601f168201915b50505050509150808054806020026020016040519081016040528092919081815260200182805480156113d657602002820191906000526020600020905b8154815260200190600101908083116113c2575b505050505090509550955095509550505090919293565b6000600a60003373ffffffffffffffffffffffffffffffffffffffff1673ffffffffffffffffffffffffffffffffffffffff16815260200190815260200160002060009054906101000a900460ff16905090565b6004548110611485576040517f08c379a000000000000000000000000000000000000000000000000000000000815260040161147c9061426e565b60405180910390fd5b6000600960008381526020019081526020016000209050600080600160048111156114b3576114b2613a55565b5b600a60003373ffffffffffffffffffffffffffffffffffffffff1673ffffffffffffffffffffffffffffffffffffffff16815260200190815260200160002060009054906101000a900460ff16600481111561151257611511613a55565b5b14156115b657826003015434101561155f576040517f08c379a000000000000000000000000000000000000000000000000000000000815260040161155690614300565b60405180910390fd5b61156833613042565b9150600082116115ad576040517f08c379a00000000000000000000000000000000000000000000000000000000081526004016115a49061436c565b60405180910390fd5b60019050611708565b6004808111156115c9576115c8613a55565b5b600a60003373ffffffffffffffffffffffffffffffffffffffff1673ffffffffffffffffffffffffffffffffffffffff16815260200190815260200160002060009054906101000a900460ff16600481111561162857611627613a55565b5b14156116cc578260040154341015611675576040517f08c379a000000000000000000000000000000000000000000000000000000000815260040161166c906143fe565b60405180910390fd5b61167e336130d4565b9150600082116116c3576040517f08c379a00000000000000000000000000000000000000000000000000000000081526004016116ba9061446a565b60405180910390fd5b60009050611707565b6040517f08c379a00000000000000000000000000000000000000000000000000000000081526004016116fe906144fc565b60405180910390fd5b5b6000805b8261173057600660008581526020019081526020016000206003018054905061174b565b60056000858152602001908152602001600020600301805490505b8110156117e8578261179157856006600086815260200190815260200160002060030182815481106117805761177f613ff4565b5b9060005260206000200154146117c7565b856005600086815260200190815260200160002060030182815481106117ba576117b9613ff4565b5b9060005260206000200154145b156117d557600191506117e8565b80806117e090613fab565b91505061170c565b50801561182a576040517f08c379a00000000000000000000000000000000000000000000000000000000081526004016118219061458e565b60405180910390fd5b811561187257600560008481526020019081526020016000206003018590806001815401808255809150506001900390600052602060002001600090919091909150556118b0565b600660008481526020019081526020016000206003018590806001815401808255809150506001900390600052602060002001600090919091909150555b6000826118c15784600401546118c7565b84600301545b905060006064866005015460646118de9190614116565b836118e991906145ae565b6118f39190614637565b9050600081836119039190614116565b9050600087600801805490508261191a9190614637565b905082600760008a60010154815260200190815260200160002060030160008282546119469190614668565b9250508190555060005b88600801805490508110156119bf5781600860008b600801848154811061197a57611979613ff4565b5b9060005260206000200154815260200190815260200160002060040160008282546119a59190614668565b9250508190555080806119b790613fab565b915050611950565b506000600760008a60010154815260200190815260200160002060010160009054906101000a900473ffffffffffffffffffffffffffffffffffffffff1673ffffffffffffffffffffffffffffffffffffffff1684604051611a20906146ef565b60006040518083038185875af1925050503d8060008114611a5d576040519150601f19603f3d011682016040523d82523d6000602084013e611a62565b606091505b5050905080611aa6576040517f08c379a0000000000000000000000000000000000000000000000000000000008152600401611a9d90614750565b60405180910390fd5b60005b8960080180549050811015611bce576000600860008c6008018481548110611ad457611ad3613ff4565b5b9060005260206000200154815260200190815260200160002060010160009054906101000a900473ffffffffffffffffffffffffffffffffffffffff1673ffffffffffffffffffffffffffffffffffffffff1684604051611b34906146ef565b60006040518083038185875af1925050503d8060008114611b71576040519150601f19603f3d011682016040523d82523d6000602084013e611b76565b606091505b5050905080611bba576040517f08c379a0000000000000000000000000000000000000000000000000000000008152600401611bb1906147bc565b60405180910390fd5b508080611bc690613fab565b915050611aa9565b508615611c08576001600d60008c81526020019081526020016000206000016000828254611bfc9190614668565b92505081905550611c37565b6001600d60008c81526020019081526020016000206001016000828254611c2f9190614668565b925050819055505b50505050505050505050565b604051806080016040528060015481526020013373ffffffffffffffffffffffffffffffffffffffff168152602001828152602001600067ffffffffffffffff811115611c9357611c92613434565b5b604051908082528060200260200182016040528015611cc15781602001602082028036833780820191505090505b508152506006600060015481526020019081526020016000206000820151816000015560208201518160010160006101000a81548173ffffffffffffffffffffffffffffffffffffffff021916908373ffffffffffffffffffffffffffffffffffffffff1602179055506040820151816002019080519060200190611d47929190613315565b506060820151816003019080519060200190611d6492919061339b565b50905050611d726004613165565b60016000815480929190611d8590613fab565b919050555050565b6000806060600080600060608060606004548a10611de0576040517f08c379a0000000000000000000000000000000000000000000000000000000008152600401611dd79061426e565b60405180910390fd5b6000600960008c815260200190815260200160002090508060000154816001015482600201836003015484600401548560050154866006018760070188600801868054611e2c906140e4565b80601f0160208091040260200160405190810160405280929190818152602001828054611e58906140e4565b8015611ea55780601f10611e7a57610100808354040283529160200191611ea5565b820191906000526020600020905b815481529060010190602001808311611e8857829003601f168201915b50505050509650828054611eb8906140e4565b80601f0160208091040260200160405190810160405280929190818152602001828054611ee4906140e4565b8015611f315780601f10611f0657610100808354040283529160200191611f31565b820191906000526020600020905b815481529060010190602001808311611f1457829003601f168201915b50505050509250818054611f44906140e4565b80601f0160208091040260200160405190810160405280929190818152602001828054611f70906140e4565b8015611fbd5780601f10611f9257610100808354040283529160200191611fbd565b820191906000526020600020905b815481529060010190602001808311611fa057829003601f168201915b505050505091508080548060200260200160405190810160405280929190818152602001828054801561200f57602002820191906000526020600020905b815481526020019060010190808311611ffb575b50505050509050995099509950995099509950995099509950509193959799909294969850565b604051806080016040528060005481526020013373ffffffffffffffffffffffffffffffffffffffff168152602001828152602001600067ffffffffffffffff81111561208657612085613434565b5b6040519080825280602002602001820160405280156120b45781602001602082028036833780820191505090505b5081525060056000805481526020019081526020016000206000820151816000015560208201518160010160006101000a81548173ffffffffffffffffffffffffffffffffffffffff021916908373ffffffffffffffffffffffffffffffffffffffff1602179055506040820151816002019080519060200190612139929190613315565b50606082015181600301908051906020019061215692919061339b565b509050506121646001613165565b60008081548092919061217690613fab565b919050555050565b6000806060806003600481111561219857612197613a55565b5b600a60003373ffffffffffffffffffffffffffffffffffffffff1673ffffffffffffffffffffffffffffffffffffffff16815260200190815260200160002060009054906101000a900460ff1660048111156121f7576121f6613a55565b5b14612237576040517f08c379a000000000000000000000000000000000000000000000000000000000815260040161222e9061484e565b60405180910390fd5b6000600c60003373ffffffffffffffffffffffffffffffffffffffff1673ffffffffffffffffffffffffffffffffffffffff168152602001908152602001600020549050600060086000838152602001908152602001600020905080600001548160010160009054906101000a900473ffffffffffffffffffffffffffffffffffffffff1682600201836005018180546122d0906140e4565b80601f01602080910402602001604051908101604052809291908181526020018280546122fc906140e4565b80156123495780601f1061231e57610100808354040283529160200191612349565b820191906000526020600020905b81548152906001019060200180831161232c57829003601f168201915b505050505091508080548060200260200160405190810160405280929190818152602001828054801561239b57602002820191906000526020600020905b815481526020019060010190808311612387575b505050505090509550955095509550505090919293565b6000600260008154809291906123c790613fab565b9190505590506040518060a001604052808281526020013373ffffffffffffffffffffffffffffffffffffffff16815260200183815260200160008152602001600067ffffffffffffffff81111561242257612421613434565b5b6040519080825280602002602001820160405280156124505781602001602082028036833780820191505090505b50815250600760008381526020019081526020016000206000820151816000015560208201518160010160006101000a81548173ffffffffffffffffffffffffffffffffffffffff021916908373ffffffffffffffffffffffffffffffffffffffff16021790555060408201518160020190805190602001906124d4929190613315565b506060820151816003015560808201518160040190805190602001906124fb92919061339b565b5090505080600b60003373ffffffffffffffffffffffffffffffffffffffff1673ffffffffffffffffffffffffffffffffffffffff1681526020019081526020016000208190555061254d6002613165565b5050565b60008060608060048081111561256a57612569613a55565b5b600a60003373ffffffffffffffffffffffffffffffffffffffff1673ffffffffffffffffffffffffffffffffffffffff16815260200190815260200160002060009054906101000a900460ff1660048111156125c9576125c8613a55565b5b14612609576040517f08c379a0000000000000000000000000000000000000000000000000000000008152600401612600906148e0565b60405180910390fd5b6000612614336130d4565b90506000600660008381526020019081526020016000209050818160010160009054906101000a900473ffffffffffffffffffffffffffffffffffffffff168260020183600301818054612667906140e4565b80601f0160208091040260200160405190810160405280929190818152602001828054612693906140e4565b80156126e05780601f106126b5576101008083540402835291602001916126e0565b820191906000526020600020905b8154815290600101906020018083116126c357829003601f168201915b505050505091508080548060200260200160405190810160405280929190818152602001828054801561273257602002820191906000526020600020905b81548152602001906001019080831161271e575b505050505090509550955095509550505090919293565b600a6020528060005260406000206000915054906101000a900460ff1681565b600060086000838152602001908152602001600020600401549050919050565b60035481565b60015481565b606060045482106127db576040517f08c379a00000000000000000000000000000000000000000000000000000000081526004016127d29061426e565b60405180910390fd5b6000600d60008481526020019081526020016000206040518060400160405290816000820154815260200160018201548152505090506000600267ffffffffffffffff81111561282e5761282d613434565b5b60405190808252806020026020018201604052801561285c5781602001602082028036833780820191505090505b50905081600001518160008151811061287857612877613ff4565b5b60200260200101818152505081602001518160018151811061289d5761289c613ff4565b5b6020026020010181815250508092505050919050565b600c6020528060005260406000206000915090505481565b60066020528060005260406000206000915090508060000154908060010160009054906101000a900473ffffffffffffffffffffffffffffffffffffffff169080600201805461291a906140e4565b80601f0160208091040260200160405190810160405280929190818152602001828054612946906140e4565b80156129935780601f1061296857610100808354040283529160200191612993565b820191906000526020600020905b81548152906001019060200180831161297657829003601f168201915b5050505050905083565b60056020528060005260406000206000915090508060000154908060010160009054906101000a900473ffffffffffffffffffffffffffffffffffffffff16908060020180546129ec906140e4565b80601f0160208091040260200160405190810160405280929190818152602001828054612a18906140e4565b8015612a655780601f10612a3a57610100808354040283529160200191612a65565b820191906000526020600020905b815481529060010190602001808311612a4857829003601f168201915b5050505050905083565b6040518060c0016040528060035481526020013373ffffffffffffffffffffffffffffffffffffffff16815260200182815260200160036004811115612ab857612ab7613a55565b5b815260200160008152602001600067ffffffffffffffff811115612adf57612ade613434565b5b604051908082528060200260200182016040528015612b0d5781602001602082028036833780820191505090505b508152506008600060035481526020019081526020016000206000820151816000015560208201518160010160006101000a81548173ffffffffffffffffffffffffffffffffffffffff021916908373ffffffffffffffffffffffffffffffffffffffff1602179055506040820151816002019080519060200190612b93929190613315565b5060608201518160030160006101000a81548160ff02191690836004811115612bbf57612bbe613a55565b5b02179055506080820151816004015560a0820151816005019080519060200190612bea92919061339b565b50905050612bf86003613165565b600354600c60003373ffffffffffffffffffffffffffffffffffffffff1673ffffffffffffffffffffffffffffffffffffffff1681526020019081526020016000208190555060036000815480929190612c5190613fab565b919050555050565b600e5481565b60086020528060005260406000206000915090508060000154908060010160009054906101000a900473ffffffffffffffffffffffffffffffffffffffff1690806002018054612cae906140e4565b80601f0160208091040260200160405190810160405280929190818152602001828054612cda906140e4565b8015612d275780601f10612cfc57610100808354040283529160200191612d27565b820191906000526020600020905b815481529060010190602001808311612d0a57829003601f168201915b5050505050908060030160009054906101000a900460ff16908060040154905085565b600b6020528060005260406000206000915090505481565b60608060006001600354612d769190614116565b67ffffffffffffffff811115612d8f57612d8e613434565b5b604051908082528060200260200182016040528015612dbd5781602001602082028036833780820191505090505b50905060006001600354612dd19190614116565b67ffffffffffffffff811115612dea57612de9613434565b5b604051908082528060200260200182016040528015612e1d57816020015b6060815260200190600190039081612e085790505b5090506000600190505b600354811015612f39578083600183612e409190614116565b81518110612e5157612e50613ff4565b5b602002602001018181525050600860008281526020019081526020016000206002018054612e7e906140e4565b80601f0160208091040260200160405190810160405280929190818152602001828054612eaa906140e4565b8015612ef75780601f10612ecc57610100808354040283529160200191612ef7565b820191906000526020600020905b815481529060010190602001808311612eda57829003601f168201915b505050505082600183612f0a9190614116565b81518110612f1b57612f1a613ff4565b5b60200260200101819052508080612f3190613fab565b915050612e27565b5081819350935050509091565b60076020528060005260406000206000915090508060000154908060010160009054906101000a900473ffffffffffffffffffffffffffffffffffffffff1690806002018054612f95906140e4565b80601f0160208091040260200160405190810160405280929190818152602001828054612fc1906140e4565b801561300e5780601f10612fe35761010080835404028352916020019161300e565b820191906000526020600020905b815481529060010190602001808311612ff157829003601f168201915b5050505050908060030154905084565b600d6020528060005260406000206000915090508060000154908060010154905082565b60006001600481111561305857613057613a55565b5b600a60008473ffffffffffffffffffffffffffffffffffffffff1673ffffffffffffffffffffffffffffffffffffffff16815260200190815260200160002060009054906101000a900460ff1660048111156130b7576130b6613a55565b5b146130c35760006130cd565b6130cc826131cf565b5b9050919050565b60006004808111156130e9576130e8613a55565b5b600a60008473ffffffffffffffffffffffffffffffffffffffff1673ffffffffffffffffffffffffffffffffffffffff16815260200190815260200160002060009054906101000a900460ff16600481111561314857613147613a55565b5b1461315457600061315e565b61315d82613272565b5b9050919050565b80600a60003373ffffffffffffffffffffffffffffffffffffffff1673ffffffffffffffffffffffffffffffffffffffff16815260200190815260200160002060006101000a81548160ff021916908360048111156131c7576131c6613a55565b5b021790555050565b600080600190505b600054811015613267578273ffffffffffffffffffffffffffffffffffffffff166005600083815260200190815260200160002060010160009054906101000a900473ffffffffffffffffffffffffffffffffffffffff1673ffffffffffffffffffffffffffffffffffffffff161415613254578091505061326d565b808061325f90613fab565b9150506131d7565b50600090505b919050565b600080600190505b60015481101561330a578273ffffffffffffffffffffffffffffffffffffffff166006600083815260200190815260200160002060010160009054906101000a900473ffffffffffffffffffffffffffffffffffffffff1673ffffffffffffffffffffffffffffffffffffffff1614156132f75780915050613310565b808061330290613fab565b91505061327a565b50600090505b919050565b828054613321906140e4565b90600052602060002090601f016020900481019282613343576000855561338a565b82601f1061335c57805160ff191683800117855561338a565b8280016001018555821561338a579182015b8281111561338957825182559160200191906001019061336e565b5b50905061339791906133e8565b5090565b8280548282559060005260206000209081019282156133d7579160200282015b828111156133d65782518255916020019190600101906133bb565b5b5090506133e491906133e8565b5090565b5b808211156134015760008160009055506001016133e9565b5090565b6000604051905090565b600080fd5b600080fd5b600080fd5b600080fd5b6000601f19601f8301169050919050565b7f4e487b7100000000000000000000000000000000000000000000000000000000600052604160045260246000fd5b61346c82613423565b810181811067ffffffffffffffff8211171561348b5761348a613434565b5b80604052505050565b600061349e613405565b90506134aa8282613463565b919050565b600067ffffffffffffffff8211156134ca576134c9613434565b5b6134d382613423565b9050602081019050919050565b82818337600083830152505050565b60006135026134fd846134af565b613494565b90508281526020810184848401111561351e5761351d61341e565b5b6135298482856134e0565b509392505050565b600082601f83011261354657613545613419565b5b81356135568482602086016134ef565b91505092915050565b6000819050919050565b6135728161355f565b811461357d57600080fd5b50565b60008135905061358f81613569565b92915050565b600067ffffffffffffffff8211156135b0576135af613434565b5b602082029050602081019050919050565b600080fd5b60006135d96135d484613595565b613494565b905080838252602082019050602084028301858111156135fc576135fb6135c1565b5b835b8181101561362557806136118882613580565b8452602084019350506020810190506135fe565b5050509392505050565b600082601f83011261364457613643613419565b5b81356136548482602086016135c6565b91505092915050565b600080600080600080600060e0888a03121561367c5761367b61340f565b5b600088013567ffffffffffffffff81111561369a57613699613414565b5b6136a68a828b01613531565b97505060206136b78a828b01613580565b96505060406136c88a828b01613580565b955050606088013567ffffffffffffffff8111156136e9576136e8613414565b5b6136f58a828b0161362f565b94505060806137068a828b01613580565b93505060a088013567ffffffffffffffff81111561372757613726613414565b5b6137338a828b01613531565b92505060c088013567ffffffffffffffff81111561375457613753613414565b5b6137608a828b01613531565b91505092959891949750929550565b6137788161355f565b82525050565b600073ffffffffffffffffffffffffffffffffffffffff82169050919050565b60006137a98261377e565b9050919050565b6137b98161379e565b82525050565b600081519050919050565b600082825260208201905092915050565b60005b838110156137f95780820151818401526020810190506137de565b83811115613808576000848401525b50505050565b6000613819826137bf565b61382381856137ca565b93506138338185602086016137db565b61383c81613423565b840191505092915050565b600081519050919050565b600082825260208201905092915050565b6000819050602082019050919050565b61387c8161355f565b82525050565b600061388e8383613873565b60208301905092915050565b6000602082019050919050565b60006138b282613847565b6138bc8185613852565b93506138c783613863565b8060005b838110156138f85781516138df8882613882565b97506138ea8361389a565b9250506001810190506138cb565b5085935050505092915050565b600060808201905061391a600083018761376f565b61392760208301866137b0565b8181036040830152613939818561380e565b9050818103606083015261394d81846138a7565b905095945050505050565b600060208201905061396d600083018461376f565b92915050565b6000602082840312156139895761398861340f565b5b600061399784828501613580565b91505092915050565b600060208201905081810360008301526139ba818461380e565b905092915050565b6000610100820190506139d8600083018b61376f565b6139e5602083018a61376f565b81810360408301526139f7818961380e565b9050613a06606083018861376f565b613a13608083018761376f565b613a2060a083018661376f565b81810360c0830152613a32818561380e565b905081810360e0830152613a46818461380e565b90509998505050505050505050565b7f4e487b7100000000000000000000000000000000000000000000000000000000600052602160045260246000fd5b60058110613a9557613a94613a55565b5b50565b6000819050613aa682613a84565b919050565b6000613ab682613a98565b9050919050565b613ac681613aab565b82525050565b6000602082019050613ae16000830184613abd565b92915050565b600060208284031215613afd57613afc61340f565b5b600082013567ffffffffffffffff811115613b1b57613b1a613414565b5b613b2784828501613531565b91505092915050565b600061012082019050613b46600083018c61376f565b613b53602083018b61376f565b8181036040830152613b65818a61380e565b9050613b74606083018961376f565b613b81608083018861376f565b613b8e60a083018761376f565b81810360c0830152613ba0818661380e565b905081810360e0830152613bb4818561380e565b9050818103610100830152613bc981846138a7565b90509a9950505050505050505050565b613be28161379e565b8114613bed57600080fd5b50565b600081359050613bff81613bd9565b92915050565b600060208284031215613c1b57613c1a61340f565b5b6000613c2984828501613bf0565b91505092915050565b60006020820190508181036000830152613c4c81846138a7565b905092915050565b6000606082019050613c69600083018661376f565b613c7660208301856137b0565b8181036040830152613c88818461380e565b9050949350505050565b600060a082019050613ca7600083018861376f565b613cb460208301876137b0565b8181036040830152613cc6818661380e565b9050613cd56060830185613abd565b613ce2608083018461376f565b9695505050505050565b600081519050919050565b600082825260208201905092915050565b6000819050602082019050919050565b600082825260208201905092915050565b6000613d34826137bf565b613d3e8185613d18565b9350613d4e8185602086016137db565b613d5781613423565b840191505092915050565b6000613d6e8383613d29565b905092915050565b6000602082019050919050565b6000613d8e82613cec565b613d988185613cf7565b935083602082028501613daa85613d08565b8060005b85811015613de65784840389528151613dc78582613d62565b9450613dd283613d76565b925060208a01995050600181019050613dae565b50829750879550505050505092915050565b60006040820190508181036000830152613e1281856138a7565b90508181036020830152613e268184613d83565b90509392505050565b6000608082019050613e44600083018761376f565b613e5160208301866137b0565b8181036040830152613e63818561380e565b9050613e72606083018461376f565b95945050505050565b6000604082019050613e90600083018561376f565b613e9d602083018461376f565b9392505050565b7f4f6e6c79207075626c6973686572732063616e2061646420736f6e6773000000600082015250565b6000613eda601d836137ca565b9150613ee582613ea4565b602082019050919050565b60006020820190508181036000830152613f0981613ecd565b9050919050565b7f5075626c6973686572206e6f7420666f756e6400000000000000000000000000600082015250565b6000613f466013836137ca565b9150613f5182613f10565b602082019050919050565b60006020820190508181036000830152613f7581613f39565b9050919050565b7f4e487b7100000000000000000000000000000000000000000000000000000000600052601160045260246000fd5b6000613fb68261355f565b91507fffffffffffffffffffffffffffffffffffffffffffffffffffffffffffffffff821415613fe957613fe8613f7c565b5b600182019050919050565b7f4e487b7100000000000000000000000000000000000000000000000000000000600052603260045260246000fd5b7f4f6e6c7920706572736f6e616c2075736572732063616e20706572666f726d2060008201527f7468697320616374696f6e000000000000000000000000000000000000000000602082015250565b600061407f602b836137ca565b915061408a82614023565b604082019050919050565b600060208201905081810360008301526140ae81614072565b9050919050565b7f4e487b7100000000000000000000000000000000000000000000000000000000600052602260045260246000fd5b600060028204905060018216806140fc57607f821691505b602082108114156141105761410f6140b5565b5b50919050565b60006141218261355f565b915061412c8361355f565b92508282101561413f5761413e613f7c565b5b828203905092915050565b7f5075626c697368657220494420646f6573206e6f742065786973740000000000600082015250565b6000614180601b836137ca565b915061418b8261414a565b602082019050919050565b600060208201905081810360008301526141af81614173565b9050919050565b7f41727469737420494420646f6573206e6f742065786973740000000000000000600082015250565b60006141ec6018836137ca565b91506141f7826141b6565b602082019050919050565b6000602082019050818103600083015261421b816141df565b9050919050565b7f496e76616c696420736f6e672049440000000000000000000000000000000000600082015250565b6000614258600f836137ca565b915061426382614222565b602082019050919050565b600060208201905081810360008301526142878161424b565b9050919050565b7f496e73756666696369656e742066756e647320746f207075726368617365207460008201527f686520736f6e672e000000000000000000000000000000000000000000000000602082015250565b60006142ea6028836137ca565b91506142f58261428e565b604082019050919050565b60006020820190508181036000830152614319816142dd565b9050919050565b7f506572736f6e616c2075736572206e6f7420666f756e64000000000000000000600082015250565b60006143566017836137ca565b915061436182614320565b602082019050919050565b6000602082019050818103600083015261438581614349565b9050919050565b7f496e73756666696369656e742066756e647320666f7220636f6d6d657263696160008201527f6c20757365000000000000000000000000000000000000000000000000000000602082015250565b60006143e86025836137ca565b91506143f38261438c565b604082019050919050565b60006020820190508181036000830152614417816143db565b9050919050565b7f436f6d6d65726369616c2075736572206e6f7420666f756e6400000000000000600082015250565b60006144546019836137ca565b915061445f8261441e565b602082019050919050565b6000602082019050818103600083015261448381614447565b9050919050565b7f4f6e6c7920706572736f6e616c20616e6420636f6d6d65726369616c2075736560008201527f72732063616e2062757920736f6e677300000000000000000000000000000000602082015250565b60006144e66030836137ca565b91506144f18261448a565b604082019050919050565b60006020820190508181036000830152614515816144d9565b9050919050565b7f536f6e6720616c7265616479207075726368617365642062792074686520757360008201527f6572000000000000000000000000000000000000000000000000000000000000602082015250565b60006145786022836137ca565b91506145838261451c565b604082019050919050565b600060208201905081810360008301526145a78161456b565b9050919050565b60006145b98261355f565b91506145c48361355f565b9250817fffffffffffffffffffffffffffffffffffffffffffffffffffffffffffffffff04831182151516156145fd576145fc613f7c565b5b828202905092915050565b7f4e487b7100000000000000000000000000000000000000000000000000000000600052601260045260246000fd5b60006146428261355f565b915061464d8361355f565b92508261465d5761465c614608565b5b828204905092915050565b60006146738261355f565b915061467e8361355f565b9250827fffffffffffffffffffffffffffffffffffffffffffffffffffffffffffffffff038211156146b3576146b2613f7c565b5b828201905092915050565b600081905092915050565b50565b60006146d96000836146be565b91506146e4826146c9565b600082019050919050565b60006146fa826146cc565b9150819050919050565b7f5472616e7366657220746f207075626c6973686572206661696c656400000000600082015250565b600061473a601c836137ca565b915061474582614704565b602082019050919050565b600060208201905081810360008301526147698161472d565b9050919050565b7f5472616e7366657220746f20617274697374206661696c656400000000000000600082015250565b60006147a66019836137ca565b91506147b182614770565b602082019050919050565b600060208201905081810360008301526147d581614799565b9050919050565b7f4f6e6c7920617274697374732063616e2061636365737320746865697220646560008201527f7461696c73000000000000000000000000000000000000000000000000000000602082015250565b60006148386025836137ca565b9150614843826147dc565b604082019050919050565b600060208201905081810360008301526148678161482b565b9050919050565b7f4f6e6c7920636f6d6d65726369616c2075736572732063616e20706572666f7260008201527f6d207468697320616374696f6e00000000000000000000000000000000000000602082015250565b60006148ca602d836137ca565b91506148d58261486e565b604082019050919050565b600060208201905081810360008301526148f9816148bd565b905091905056fea26469706673582212207724274dee8176ce59aa156e2ecdaef55fbed6078ee34729b7797817bc2bedc164736f6c63430008090033",
  "immutableReferences": {},
  "source": "// SPDX-License-Identifier: MIT\r\npragma solidity ^0.8.0;\r\n\r\ncontract MusicMarketplace {\r\n    enum UserType {\r\n        Unknown,\r\n        Personal,\r\n        Publisher,\r\n        Artist,\r\n        Commercial\r\n    }\r\n\r\n    struct Personal {\r\n        uint256 personalID;\r\n        address walletAddress;\r\n        string personalName;\r\n        uint256[] songIDs; // Array to store IDs of purchased songs\r\n    }\r\n\r\n    struct Commercial {\r\n        uint256 commercialID;\r\n        address walletAddress;\r\n        string commercialName;\r\n        uint256[] songIDs; // Array to store IDs of purchased songs\r\n    }\r\n\r\n    struct Publisher {\r\n        uint256 publisherID;\r\n        address walletAddress;\r\n        string publisherName;\r\n        uint256 totalEarnings; \r\n        uint256[] songsPublished; // Array to store IDs of songs published by the publisher\r\n    }\r\n\r\n    struct Artist {\r\n        uint256 artistID;\r\n        address walletAddress;\r\n        string artistName;\r\n        UserType userType;\r\n        uint256 totalEarnings; // Total earnings for the artist\r\n        uint256[] songsArtist; // Array to store IDs of songs associated with the artist\r\n    }\r\n\r\n    struct Song {\r\n        uint256 songID;\r\n        uint256 publisherID; \r\n        string songName;\r\n        uint256 personalPricing; // Renamed from songPrice to personalPricing\r\n        uint256 commercialPricing; // Additional pricing for commercial use\r\n        uint256 royaltyPercent;\r\n        string songHash; \r\n        string genre; \r\n        uint256[] artistIDs; // Array to store artist IDs\r\n    }\r\n\r\n    struct PurchaseCounts {\r\n        uint256 personalCount;\r\n        uint256 commercialCount;\r\n    }\r\n\r\n    uint256 public nextPersonalID = 1;\r\n    uint256 public nextCommercialID = 1;\r\n    uint256 public nextPublisherID = 1;\r\n    uint256 public nextArtistID = 1;\r\n    uint256 public nextSongID = 1;\r\n\r\n    mapping(uint256 => Personal) public personals;\r\n    mapping(uint256 => Commercial) public commercials;\r\n    mapping(uint256 => Publisher) public publishers;\r\n    mapping(uint256 => Artist) public artists;\r\n    mapping(uint256 => Song) public songs;\r\n    mapping(address => UserType) public userTypes;\r\n    mapping(address => uint256) public publisherIDsByWallet;\r\n    mapping(address => uint256) public artistIDsByWallet; // Mapping for artists\r\n    mapping(uint256 => PurchaseCounts) public timesSongPurchased;\r\n\r\n    uint256 public songIDTracker = 0; \r\n\r\n    modifier onlyPersonal() {\r\n        require(\r\n            userTypes[msg.sender] == UserType.Personal,\r\n            \"Only personal users can perform this action\"\r\n        );\r\n        _;\r\n    }\r\n\r\n    modifier onlyCommercial() {\r\n        require(\r\n            userTypes[msg.sender] == UserType.Commercial,\r\n            \"Only commercial users can perform this action\"\r\n        );\r\n        _;\r\n    }\r\n\r\n    function addUserType(UserType _userType) internal {\r\n        userTypes[msg.sender] = _userType;\r\n    }\r\n\r\n    function addPersonal(string memory _personalName) public {\r\n        personals[nextPersonalID] = Personal(\r\n            nextPersonalID,\r\n            msg.sender,\r\n            _personalName,\r\n            new uint256[](0) \r\n        );\r\n        addUserType(UserType.Personal);\r\n        nextPersonalID++;\r\n    }\r\n\r\n    function addCommercial(string memory _commercialName) public {\r\n        commercials[nextCommercialID] = Commercial(\r\n            nextCommercialID,\r\n            msg.sender,\r\n            _commercialName,\r\n            new uint256[](0) \r\n        );\r\n        addUserType(UserType.Commercial);\r\n        nextCommercialID++;\r\n    }\r\n\r\n    function addPublisher(string memory _publisherName) public {\r\n        uint256 newPublisherID = nextPublisherID++;\r\n        publishers[newPublisherID] = Publisher(\r\n            newPublisherID,\r\n            msg.sender,\r\n            _publisherName,\r\n            0,\r\n            new uint256[](0) \r\n        );\r\n\r\n        // Store the mapping between the wallet address and the publisher ID\r\n        publisherIDsByWallet[msg.sender] = newPublisherID;\r\n\r\n        addUserType(UserType.Publisher);\r\n    }\r\n\r\n    function addArtist(string memory _artistName) public {\r\n        artists[nextArtistID] = Artist(\r\n            nextArtistID,\r\n            msg.sender,\r\n            _artistName,\r\n            UserType.Artist,\r\n            0,\r\n            new uint256[](0) \r\n        );\r\n        addUserType(UserType.Artist);\r\n        artistIDsByWallet[msg.sender] = nextArtistID; // Update mapping for artists\r\n        nextArtistID++;\r\n    }\r\n\r\n    function addSong(\r\n        string memory _songName,\r\n        uint256 _personalPricing,\r\n        uint256 _commercialPricing,\r\n        uint256[] memory _artistIDs,\r\n        uint256 _royaltyPercent,\r\n        string memory _songHash,\r\n        string memory _genre\r\n    ) public {\r\n        require(\r\n            userTypes[msg.sender] == UserType.Publisher,\r\n            \"Only publishers can add songs\"\r\n        );\r\n        uint256 publisherID = publisherIDsByWallet[msg.sender]; \r\n        require(publisherID > 0, \"Publisher not found\"); // Ensure the publisher exists\r\n        //         // Check if the song hash has been used before\r\n        // require(!songHashes[_songHash], \"Song hash already used\");\r\n\r\n        uint256 newSongID = nextSongID++;\r\n        songs[newSongID] = Song(\r\n            newSongID,\r\n            publisherID,\r\n            _songName,\r\n            _personalPricing,\r\n            _commercialPricing,\r\n            _royaltyPercent,\r\n            _songHash,\r\n            _genre,\r\n            _artistIDs\r\n        );\r\n        //         // Mark the song hash as used\r\n        // songHashes[_songHash] = true;\r\n\r\n        // Update songsPublished array for the publisher\r\n        publishers[publisherID].songsPublished.push(newSongID);\r\n\r\n        // Update songsArtist array for each artist associated with the song\r\n        for (uint256 i = 0; i < _artistIDs.length; i++) {\r\n            artists[_artistIDs[i]].songsArtist.push(newSongID);\r\n        }\r\n\r\n        // Initialize the purchase count for the new song to 0\r\n        timesSongPurchased[newSongID] = PurchaseCounts({\r\n            personalCount: 0,\r\n            commercialCount: 0\r\n        });\r\n\r\n        songIDTracker++; // Increment songIDTracker when a song is added\r\n    }\r\n\r\n    function checkUserType() public view returns (UserType) {\r\n        return userTypes[msg.sender];\r\n    }\r\n\r\n    function getPublisherEarnings(\r\n        uint256 _publisherID\r\n    ) public view returns (uint256) {\r\n        return publishers[_publisherID].totalEarnings;\r\n    }\r\n\r\n    function getArtistEarnings(\r\n        uint256 _artistID\r\n    ) public view returns (uint256) {\r\n        return artists[_artistID].totalEarnings;\r\n    }\r\n\r\n    function buySong(uint256 _songID) public payable {\r\n        require(_songID < nextSongID, \"Invalid song ID\");\r\n        Song storage song = songs[_songID];\r\n\r\n        uint256 userID;\r\n        bool isPersonal;\r\n        if (userTypes[msg.sender] == UserType.Personal) {\r\n            require(\r\n                msg.value >= song.personalPricing,\r\n                \"Insufficient funds to purchase the song.\"\r\n            );\r\n            userID = getPersonalIDByWallet(msg.sender);\r\n            require(userID > 0, \"Personal user not found\");\r\n            isPersonal = true;\r\n        } else if (userTypes[msg.sender] == UserType.Commercial) {\r\n            require(\r\n                msg.value >= song.commercialPricing,\r\n                \"Insufficient funds for commercial use\"\r\n            );\r\n            userID = getCommercialIDByWallet(msg.sender);\r\n            require(userID > 0, \"Commercial user not found\");\r\n            isPersonal = false;\r\n        } else {\r\n            revert(\"Only personal and commercial users can buy songs\");\r\n        }\r\n\r\n        // Check if the song is already purchased by the user\r\n        bool songAlreadyPurchased = false;\r\n        for (\r\n            uint256 i = 0;\r\n            i <\r\n            (\r\n                isPersonal\r\n                    ? personals[userID].songIDs.length\r\n                    : commercials[userID].songIDs.length\r\n            );\r\n            i++\r\n        ) {\r\n            if (\r\n                isPersonal\r\n                    ? personals[userID].songIDs[i] == _songID\r\n                    : commercials[userID].songIDs[i] == _songID\r\n            ) {\r\n                songAlreadyPurchased = true;\r\n                break;\r\n            }\r\n        }\r\n\r\n        require(!songAlreadyPurchased, \"Song already purchased by the user\");\r\n\r\n        // If not purchased, add the SongID to the SongIDs array of the user\r\n        if (isPersonal) {\r\n            personals[userID].songIDs.push(_songID);\r\n        } else {\r\n            commercials[userID].songIDs.push(_songID);\r\n        }\r\n\r\n        // Calculate earnings and perform transfers\r\n        uint256 price = isPersonal\r\n            ? song.personalPricing\r\n            : song.commercialPricing;\r\n        uint256 publisherShare = (price * (100 - song.royaltyPercent)) / 100;\r\n        uint256 artistShare = price - publisherShare;\r\n        uint256 artistSharePerArtist = artistShare / song.artistIDs.length;\r\n\r\n        // Update earnings for the publisher\r\n        publishers[song.publisherID].totalEarnings += publisherShare;\r\n        // Update earnings for the artists\r\n        for (uint256 i = 0; i < song.artistIDs.length; i++) {\r\n            artists[song.artistIDs[i]].totalEarnings += artistSharePerArtist;\r\n        }\r\n        // Transfer funds to publisher\r\n        (bool publisherTransferResult, ) = payable(\r\n            publishers[song.publisherID].walletAddress\r\n        ).call{value: publisherShare}(\"\");\r\n        require(publisherTransferResult, \"Transfer to publisher failed\");\r\n\r\n        // Transfer funds to artists\r\n        for (uint256 i = 0; i < song.artistIDs.length; i++) {\r\n            (bool artistTransferResult, ) = payable(\r\n                artists[song.artistIDs[i]].walletAddress\r\n            ).call{value: artistSharePerArtist}(\"\");\r\n            require(artistTransferResult, \"Transfer to artist failed\");\r\n        }\r\n\r\n        // Increment the appropriate count in the timesSongPurchased mapping\r\n        if (isPersonal) {\r\n            timesSongPurchased[_songID].personalCount += 1;\r\n        } else {\r\n            timesSongPurchased[_songID].commercialCount += 1;\r\n        }\r\n    }\r\n\r\n    function getPersonalDetails()\r\n        public\r\n        view\r\n        onlyPersonal\r\n        returns (\r\n            uint256 personalID,\r\n            address walletAddress,\r\n            string memory personalName,\r\n            uint256[] memory songIDs\r\n        )\r\n    {\r\n        uint256 foundPersonalID = getPersonalIDByWallet(msg.sender);\r\n        Personal storage personal = personals[foundPersonalID];\r\n\r\n        return (\r\n            foundPersonalID,\r\n            personal.walletAddress,\r\n            personal.personalName,\r\n            personal.songIDs\r\n        );\r\n    }\r\n\r\n    function getPersonalIDByWallet(\r\n        address _walletAddress\r\n    ) internal view returns (uint256) {\r\n        return\r\n            userTypes[_walletAddress] == UserType.Personal\r\n                ? _getPersonalID(_walletAddress)\r\n                : 0;\r\n    }\r\n\r\n    function getCommercialIDByWallet(\r\n        address _walletAddress\r\n    ) internal view returns (uint256) {\r\n        return\r\n            userTypes[_walletAddress] == UserType.Commercial\r\n                ? _getCommercialID(_walletAddress)\r\n                : 0;\r\n    }\r\n\r\n    function _getCommercialID(\r\n        address _walletAddress\r\n    ) internal view returns (uint256) {\r\n        for (uint256 i = 1; i < nextCommercialID; i++) {\r\n            if (commercials[i].walletAddress == _walletAddress) {\r\n                return i;\r\n            }\r\n        }\r\n        return 0;\r\n    }\r\n\r\n    function _getPersonalID(\r\n        address _walletAddress\r\n    ) internal view returns (uint256) {\r\n        for (uint256 i = 1; i < nextPersonalID; i++) {\r\n            if (personals[i].walletAddress == _walletAddress) {\r\n                return i;\r\n            }\r\n        }\r\n        return 0;\r\n    }\r\n\r\n    function getCommercialDetails()\r\n        public\r\n        view\r\n        onlyCommercial\r\n        returns (\r\n            uint256 commercialID,\r\n            address walletAddress,\r\n            string memory commercialName,\r\n            uint256[] memory songIDs\r\n        )\r\n    {\r\n        uint256 foundCommercialID = getCommercialIDByWallet(msg.sender);\r\n        Commercial storage commercial = commercials[foundCommercialID];\r\n\r\n        return (\r\n            foundCommercialID,\r\n            commercial.walletAddress,\r\n            commercial.commercialName,\r\n            commercial.songIDs\r\n        );\r\n    }\r\n\r\n    function getSongDetails(\r\n        uint256 _songID\r\n    )\r\n        public\r\n        view\r\n        returns (\r\n            uint256 songID,\r\n            uint256 publisherID,\r\n            string memory songName,\r\n            uint256 personalPricing,\r\n            uint256 commercialPricing,\r\n            uint256 royaltyPercent,\r\n            string memory songHash,\r\n            string memory genre,\r\n            uint256[] memory artistIDs\r\n        )\r\n    {\r\n        require(_songID < nextSongID, \"Invalid song ID\");\r\n        Song storage song = songs[_songID];\r\n        return (\r\n            song.songID,\r\n            song.publisherID,\r\n            song.songName,\r\n            song.personalPricing,\r\n            song.commercialPricing,\r\n            song.royaltyPercent,\r\n            song.songHash,\r\n            song.genre,\r\n            song.artistIDs\r\n        );\r\n    }\r\n\r\n    function getSongPurchaseCounts(\r\n        uint256 _songID\r\n    ) public view returns (uint256[] memory) {\r\n        require(_songID < nextSongID, \"Invalid song ID\");\r\n        PurchaseCounts memory counts = timesSongPurchased[_songID];\r\n        uint256[] memory purchaseCountArray = new uint256[](2); \r\n        purchaseCountArray[0] = counts.personalCount; \r\n        purchaseCountArray[1] = counts.commercialCount; \r\n        return purchaseCountArray; \r\n    }\r\n\r\n    function getPublisherDetails()\r\n        public\r\n        view\r\n        returns (\r\n            uint256 publisherID,\r\n            address walletAddress,\r\n            string memory publisherName,\r\n            uint256[] memory songsPublished\r\n        )\r\n    {\r\n        // require(\r\n        //     userTypes[msg.sender] == UserType.Publisher ,\r\n        //     \"Only publishers can access their details\"\r\n        // );\r\n\r\n        uint256 foundPublisherID = publisherIDsByWallet[msg.sender];\r\n        Publisher storage publisher = publishers[foundPublisherID];\r\n\r\n        return (\r\n            publisher.publisherID,\r\n            publisher.walletAddress,\r\n            publisher.publisherName,\r\n            publisher.songsPublished\r\n        );\r\n    }\r\n\r\n    function getArtistDetails()\r\n        public\r\n        view\r\n        returns (\r\n            uint256 artistID,\r\n            address walletAddress,\r\n            string memory artistName,\r\n            uint256[] memory songsArtist\r\n        )\r\n    {\r\n        require(\r\n            userTypes[msg.sender] == UserType.Artist,\r\n            \"Only artists can access their details\"\r\n        );\r\n\r\n        uint256 foundArtistID = artistIDsByWallet[msg.sender];\r\n        Artist storage artist = artists[foundArtistID];\r\n\r\n        return (\r\n            artist.artistID,\r\n            artist.walletAddress,\r\n            artist.artistName,\r\n            artist.songsArtist\r\n        );\r\n    }\r\n\r\n    function getNumSongs() public view returns (uint256) {\r\n        return songIDTracker - 1;\r\n    }\r\n\r\n    function getPublisherNameByID(\r\n        uint256 _publisherID\r\n    ) public view returns (string memory publisherName) {\r\n        // Check if the publisherID exists in the publishers mapping\r\n        require(\r\n            publishers[_publisherID].publisherID != 0,\r\n            \"Publisher ID does not exist\"\r\n        );\r\n        // Retrieve the publisher details using the publisherID\r\n        Publisher storage publisher = publishers[_publisherID];\r\n        return publisher.publisherName;\r\n    }\r\n\r\n    function getArtistNameByID(\r\n        uint256 _artistID\r\n    ) public view returns (string memory artistName) {\r\n        // Check if the artistID exists in the artists mapping\r\n        require(artists[_artistID].artistID != 0, \"Artist ID does not exist\");\r\n        // Retrieve the artist details using the artistID\r\n        Artist storage artist = artists[_artistID];\r\n        return artist.artistName;\r\n    }\r\n\r\n    function getAllArtists()\r\n        public\r\n        view\r\n        returns (uint256[] memory, string[] memory)\r\n    {\r\n        uint256[] memory artistIDs = new uint256[](nextArtistID - 1);\r\n        string[] memory artistNames = new string[](nextArtistID - 1);\r\n        // Iterate through all artists and populate the arrays\r\n        for (uint256 i = 1; i < nextArtistID; i++) {\r\n            artistIDs[i - 1] = i;\r\n            artistNames[i - 1] = artists[i].artistName;\r\n        }\r\n        return (artistIDs, artistNames);\r\n    }\r\n}\r\n",
  "sourcePath": "C:\\Users\\Vendrell\\Desktop\\Project_v16\\App\\contracts\\MusicMarketplace.sol",
  "compiler": {
    "name": "solc",
    "version": "0.8.9+commit.e5eed63a.Emscripten.clang"
  },
  "schemaVersion": "3.4.16",
  "updatedAt": "2024-05-06T18:30:30.715Z",
  "networkType": "ethereum",
  "devdoc": {
    "kind": "dev",
    "methods": {},
    "version": 1
  },
  "userdoc": {
    "kind": "user",
    "methods": {},
    "version": 1
  }
}